{
  "contractName": "FlightDelay",
  "abi": [
    {
      "inputs": [
        {
          "internalType": "uint256",
          "name": "client_bookingId",
          "type": "uint256"
        },
        {
          "internalType": "uint256",
          "name": "client_flightId",
          "type": "uint256"
        },
        {
          "internalType": "address",
          "name": "owner",
          "type": "address"
        }
      ],
      "payable": false,
      "stateMutability": "nonpayable",
      "type": "constructor"
    },
    {
      "constant": true,
      "inputs": [],
      "name": "bookingId",
      "outputs": [
        {
          "internalType": "uint256",
          "name": "",
          "type": "uint256"
        }
      ],
      "payable": false,
      "stateMutability": "view",
      "type": "function"
    },
    {
      "constant": true,
      "inputs": [
        {
          "internalType": "uint256",
          "name": "",
          "type": "uint256"
        }
      ],
      "name": "claims",
      "outputs": [
        {
          "internalType": "uint256",
          "name": "bookingNr",
          "type": "uint256"
        },
        {
          "internalType": "uint256",
          "name": "flightNr",
          "type": "uint256"
        },
        {
          "internalType": "uint256",
          "name": "amount",
          "type": "uint256"
        },
        {
          "internalType": "address payable",
          "name": "client",
          "type": "address"
        }
      ],
      "payable": false,
      "stateMutability": "view",
      "type": "function"
    },
    {
      "constant": true,
      "inputs": [],
      "name": "flightId",
      "outputs": [
        {
          "internalType": "uint256",
          "name": "",
          "type": "uint256"
        }
      ],
      "payable": false,
      "stateMutability": "view",
      "type": "function"
    },
    {
      "constant": true,
      "inputs": [],
      "name": "insurance_company",
      "outputs": [
        {
          "internalType": "address",
          "name": "",
          "type": "address"
        }
      ],
      "payable": false,
      "stateMutability": "view",
      "type": "function"
    },
    {
      "constant": false,
      "inputs": [
        {
          "internalType": "uint256",
          "name": "claim_bookingId",
          "type": "uint256"
        },
        {
          "internalType": "uint256",
          "name": "claim_flightId",
          "type": "uint256"
        },
        {
          "internalType": "uint256",
          "name": "claim_amount",
          "type": "uint256"
        },
        {
          "internalType": "address payable",
          "name": "claim_client",
          "type": "address"
        }
      ],
      "name": "createClaim",
      "outputs": [],
      "payable": false,
      "stateMutability": "nonpayable",
      "type": "function"
    },
    {
      "constant": false,
      "inputs": [
        {
          "internalType": "uint256",
          "name": "actualDelay",
          "type": "uint256"
        },
        {
          "internalType": "uint256",
          "name": "claim_id",
          "type": "uint256"
        }
      ],
      "name": "payout",
      "outputs": [],
      "payable": true,
      "stateMutability": "payable",
      "type": "function"
    }
  ],
  "bytecode": "0x608060405234801561001057600080fd5b506040516106273803806106278339818101604052606081101561003357600080fd5b8101908080519060200190929190805190602001909291908051906020019092919050505080600160006101000a81548173ffffffffffffffffffffffffffffffffffffffff021916908373ffffffffffffffffffffffffffffffffffffffff160217905550826002819055508160038190555050505061056e806100b96000396000f3fe6080604052600436106100555760003560e01c80630a10df7c1461005a5780635aa6cf97146100855780635daf3c06146100bd57806376f993f7146100e8578063a888c2cd1461013f578063b8daac74146101cf575b600080fd5b34801561006657600080fd5b5061006f61023e565b6040518082815260200191505060405180910390f35b6100bb6004803603604081101561009b57600080fd5b810190808035906020019092919080359060200190929190505050610244565b005b3480156100c957600080fd5b506100d261033a565b6040518082815260200191505060405180910390f35b3480156100f457600080fd5b506100fd610340565b604051808273ffffffffffffffffffffffffffffffffffffffff1673ffffffffffffffffffffffffffffffffffffffff16815260200191505060405180910390f35b34801561014b57600080fd5b506101786004803603602081101561016257600080fd5b8101908080359060200190929190505050610366565b604051808581526020018481526020018381526020018273ffffffffffffffffffffffffffffffffffffffff1673ffffffffffffffffffffffffffffffffffffffff16815260200194505050505060405180910390f35b3480156101db57600080fd5b5061023c600480360360808110156101f257600080fd5b81019080803590602001909291908035906020019092919080359060200190929190803573ffffffffffffffffffffffffffffffffffffffff1690602001909291905050506103c3565b005b60025481565b600160009054906101000a900473ffffffffffffffffffffffffffffffffffffffff1673ffffffffffffffffffffffffffffffffffffffff163373ffffffffffffffffffffffffffffffffffffffff161461029e57600080fd5b60008082815481106102ac57fe5b90600052602060002090600402019050603c831115610335578060030160009054906101000a900473ffffffffffffffffffffffffffffffffffffffff1673ffffffffffffffffffffffffffffffffffffffff166108fc82600201549081150290604051600060405180830381858888f19350505050158015610333573d6000803e3d6000fd5b505b505050565b60035481565b600160009054906101000a900473ffffffffffffffffffffffffffffffffffffffff1681565b6000818154811061037357fe5b90600052602060002090600402016000915090508060000154908060010154908060020154908060030160009054906101000a900473ffffffffffffffffffffffffffffffffffffffff16905084565b600160009054906101000a900473ffffffffffffffffffffffffffffffffffffffff1673ffffffffffffffffffffffffffffffffffffffff163373ffffffffffffffffffffffffffffffffffffffff161461041d57600080fd5b6104256104fb565b60405180608001604052808681526020018581526020018481526020018373ffffffffffffffffffffffffffffffffffffffff1681525090506000819080600181540180825580915050906001820390600052602060002090600402016000909192909190915060008201518160000155602082015181600101556040820151816002015560608201518160030160006101000a81548173ffffffffffffffffffffffffffffffffffffffff021916908373ffffffffffffffffffffffffffffffffffffffff1602179055505050505050505050565b6040518060800160405280600081526020016000815260200160008152602001600073ffffffffffffffffffffffffffffffffffffffff168152509056fea265627a7a7231582012a422958e17cfdca90f0dd56385886522169f64cebf036d10e3fc54077b811c64736f6c63430005100032",
  "source": "// SPDX-License-Identifier: MIT\npragma solidity ^0.5.16;\n\ncontract FlightDelay {\n    \n    struct Claim {\n        uint bookingNr;\n        uint flightNr;\n        uint amount;\n        address payable client;\n    }\n\n    Claim[] public claims;\n\n    address public insurance_company;\n\n    uint public bookingId;\n    uint public flightId;\n    uint constant delay = 60;   // 60 Minuten Verspätung\n\n    // Constructor\n    constructor(uint client_bookingId, uint client_flightId, address owner) public {\n        insurance_company = owner;\n        bookingId = client_bookingId;\n        flightId = client_flightId;\n    }\n\n    modifier companyOnly() {\n        require(msg.sender == insurance_company);\n        _;\n    }\n\n    function createClaim(uint claim_bookingId, uint claim_flightId, uint claim_amount, address payable claim_client) public companyOnly() {\n        Claim memory newClaim = Claim({\n            bookingNr : claim_bookingId,\n            flightNr : claim_flightId,\n            amount : claim_amount,\n            client : claim_client\n        });\n        claims.push(newClaim);\n    }\n\n    // Funktion, die die Verspätung in Minuten einliest und den richtigen Payment Code zuweist\n    function payout(uint actualDelay, uint claim_id) public payable companyOnly() {\n        Claim storage claim = claims[claim_id];\n\n        if (actualDelay > delay) {\n            claim.client.transfer(claim.amount);\n        }\n    }\n\n\n\n\n\n    /*function testPayout() public payable companyOnly() {\n        Claim storage claim = claims[1];\n\n        claim.client.transfer(2);\n    }*/\n\n    /*function test() public payable {\n        address payable manager = msg.sender;\n        manager.transfer();\n    }*/\n\n    // so funds not locked in contract forever\n    //function destroy() public view { \n        \n    //suicide(insurance_owner);\n        \n    //}\n}",
  "sourcePath": "/projects/BC-GROUP2/flightDelay/contracts/FlightDelay.sol",
  "compiler": {
    "name": "solc",
    "version": "0.5.16+commit.9c3226ce.Emscripten.clang"
  },
  "schemaVersion": "3.4.0",
  "updatedAt": "2021-07-02T07:55:35.285Z",
  "devdoc": {
    "methods": {}
  },
  "userdoc": {
    "methods": {}
  }
}