{
  "contractName": "InsuranceClients",
  "abi": [
    {
      "constant": true,
      "inputs": [
        {
          "internalType": "uint256",
          "name": "",
          "type": "uint256"
        }
      ],
      "name": "clients",
      "outputs": [
        {
          "internalType": "address",
          "name": "",
          "type": "address"
        }
      ],
      "payable": false,
      "stateMutability": "view",
      "type": "function"
    },
    {
      "constant": false,
      "inputs": [
        {
          "internalType": "string",
          "name": "flightId",
          "type": "string"
        }
      ],
      "name": "createClient",
      "outputs": [],
      "payable": false,
      "stateMutability": "nonpayable",
      "type": "function"
    },
    {
      "constant": true,
      "inputs": [],
      "name": "getDeployedClients",
      "outputs": [
        {
          "internalType": "address[]",
          "name": "",
          "type": "address[]"
        }
      ],
      "payable": false,
      "stateMutability": "view",
      "type": "function"
    }
  ],
  "bytecode": "0x608060405234801561001057600080fd5b5061179a806100206000396000f3fe608060405234801561001057600080fd5b50600436106100415760003560e01c8063cf3078c614610046578063e88e9f0f1461009e578063f88af21d14610146575b600080fd5b61004e61017f565b60408051602080825283518183015283519192839290830191858101910280838360005b8381101561008a578181015183820152602001610072565b505050509050019250505060405180910390f35b610144600480360360208110156100b457600080fd5b8101906020810181356401000000008111156100cf57600080fd5b8201836020820111156100e157600080fd5b8035906020019184600183028401116401000000008311171561010357600080fd5b91908080601f0160208091040260200160405190810160405280939291908181526020018383808284376000920191909152509295506101e1945050505050565b005b6101636004803603602081101561015c57600080fd5b50356102db565b604080516001600160a01b039092168252519081900360200190f35b606060008054806020026020016040519081016040528092919081815260200182805480156101d757602002820191906000526020600020905b81546001600160a01b031681526001909101906020018083116101b9575b5050505050905090565b600081336040516101f190610302565b6001600160a01b03821660208083019190915260408083528451908301528351829160608301919086019080838360005b8381101561023a578181015183820152602001610222565b50505050905090810190601f1680156102675780820380516001836020036101000a031916815260200191505b509350505050604051809103906000f080158015610289573d6000803e3d6000fd5b50600080546001810182559080527f290decd9548b62a8d60345a988386fc84ba6bc95484008f6362f93160ef3e5630180546001600160a01b0319166001600160a01b03929092169190911790555050565b600081815481106102e857fe5b6000918252602090912001546001600160a01b0316905081565b611456806103108339019056fe60806040523480156200001157600080fd5b506040516200145638038062001456833981810160405260408110156200003757600080fd5b81019080805160405193929190846401000000008211156200005857600080fd5b9083019060208201858111156200006e57600080fd5b82516401000000008111828201881017156200008957600080fd5b82525081516020918201929091019080838360005b83811015620000b85781810151838201526020016200009e565b50505050905090810190601f168015620000e65780820380516001836020036101000a031916815260200191505b50604052602090810151600180546001600160a01b0319166001600160a01b03831617905584519093506200012292506006918501906200012b565b505050620001d0565b828054600181600116156101000203166002900490600052602060002090601f016020900481019282601f106200016e57805160ff19168380011785556200019e565b828001600101855582156200019e579182015b828111156200019e57825182559160200191906001019062000181565b50620001ac929150620001b0565b5090565b620001cd91905b80821115620001ac5760008155600101620001b7565b90565b61127680620001e06000396000f3fe6080604052600436106100865760003560e01c806376f993f71161005957806376f993f714610164578063a888c2cd14610195578063b269681d146103ef578063be9a655514610404578063eea409261461041957610086565b806316ada5471461008b578063323046b1146101155780635aa6cf971461012a5780635daf3c061461014f575b600080fd5b34801561009757600080fd5b506100a06106f1565b6040805160208082528351818301528351919283929083019185019080838360005b838110156100da5781810151838201526020016100c2565b50505050905090810190601f1680156101075780820380516001836020036101000a031916815260200191505b509250505060405180910390f35b34801561012157600080fd5b506100a061077f565b61014d6004803603604081101561014057600080fd5b50803590602001356107da565b005b34801561015b57600080fd5b506100a0610bd7565b34801561017057600080fd5b50610179610c32565b604080516001600160a01b039092168252519081900360200190f35b3480156101a157600080fd5b506101bf600480360360208110156101b857600080fd5b5035610c41565b604051808060200188815260200180602001806020018060200180602001876001600160a01b03166001600160a01b0316815260200186810386528d818151815260200191508051906020019080838360005b8381101561022a578181015183820152602001610212565b50505050905090810190601f1680156102575780820380516001836020036101000a031916815260200191505b5086810385528b5181528b516020918201918d019080838360005b8381101561028a578181015183820152602001610272565b50505050905090810190601f1680156102b75780820380516001836020036101000a031916815260200191505b5086810384528a5181528a516020918201918c019080838360005b838110156102ea5781810151838201526020016102d2565b50505050905090810190601f1680156103175780820380516001836020036101000a031916815260200191505b5086810383528951815289516020918201918b019080838360005b8381101561034a578181015183820152602001610332565b50505050905090810190601f1680156103775780820380516001836020036101000a031916815260200191505b5086810382528851815288516020918201918a019080838360005b838110156103aa578181015183820152602001610392565b50505050905090810190601f1680156103d75780820380516001836020036101000a031916815260200191505b509c5050505050505050505050505060405180910390f35b3480156103fb57600080fd5b506100a0610f54565b34801561041057600080fd5b506100a0610faf565b34801561042557600080fd5b5061014d600480360360e081101561043c57600080fd5b810190602081018135600160201b81111561045657600080fd5b82018360208201111561046857600080fd5b803590602001918460018302840111600160201b8311171561048957600080fd5b91908080601f01602080910402602001604051908101604052809392919081815260200183838082843760009201919091525092958435959094909350604081019250602001359050600160201b8111156104e357600080fd5b8201836020820111156104f557600080fd5b803590602001918460018302840111600160201b8311171561051657600080fd5b91908080601f0160208091040260200160405190810160405280939291908181526020018383808284376000920191909152509295949360208101935035915050600160201b81111561056857600080fd5b82018360208201111561057a57600080fd5b803590602001918460018302840111600160201b8311171561059b57600080fd5b91908080601f0160208091040260200160405190810160405280939291908181526020018383808284376000920191909152509295949360208101935035915050600160201b8111156105ed57600080fd5b8201836020820111156105ff57600080fd5b803590602001918460018302840111600160201b8311171561062057600080fd5b91908080601f0160208091040260200160405190810160405280939291908181526020018383808284376000920191909152509295949360208101935035915050600160201b81111561067257600080fd5b82018360208201111561068457600080fd5b803590602001918460018302840111600160201b831117156106a557600080fd5b91908080601f016020809104026020016040519081016040528093929190818152602001838380828437600092019190915250929550505090356001600160a01b031691506110079050565b6005805460408051602060026001851615610100026000190190941693909304601f810184900484028201840190925281815292918301828280156107775780601f1061074c57610100808354040283529160200191610777565b820191906000526020600020905b81548152906001019060200180831161075a57829003601f168201915b505050505081565b6004805460408051602060026001851615610100026000190190941693909304601f810184900484028201840190925281815292918301828280156107775780601f1061074c57610100808354040283529160200191610777565b6001546001600160a01b031633146107f157600080fd5b6000548110610847576040805162461bcd60e51b815260206004820152601f60248201527f466c6967687444656c61793a20496e646578206f75742d6f662d626f756e6400604482015290519081900360640190fd5b61084f611160565b6000828154811061085c57fe5b6000918252602091829020604080516007939093029091018054600260018216156101009081026000190190921604601f81018690049095028401810190925260e08301848152929390928492909184918401828280156108fe5780601f106108d3576101008083540402835291602001916108fe565b820191906000526020600020905b8154815290600101906020018083116108e157829003601f168201915b5050505050815260200160018201548152602001600282018054600181600116156101000203166002900480601f0160208091040260200160405190810160405280929190818152602001828054600181600116156101000203166002900480156109aa5780601f1061097f576101008083540402835291602001916109aa565b820191906000526020600020905b81548152906001019060200180831161098d57829003601f168201915b505050918352505060038201805460408051602060026001851615610100026000190190941693909304601f8101849004840282018401909252818152938201939291830182828015610a3e5780601f10610a1357610100808354040283529160200191610a3e565b820191906000526020600020905b815481529060010190602001808311610a2157829003601f168201915b505050918352505060048201805460408051602060026001851615610100026000190190941693909304601f8101849004840282018401909252818152938201939291830182828015610ad25780601f10610aa757610100808354040283529160200191610ad2565b820191906000526020600020905b815481529060010190602001808311610ab557829003601f168201915b505050918352505060058201805460408051602060026001851615610100026000190190941693909304601f8101849004840282018401909252818152938201939291830182828015610b665780601f10610b3b57610100808354040283529160200191610b66565b820191906000526020600020905b815481529060010190602001808311610b4957829003601f168201915b5050509183525050600691909101546001600160a01b03166020909101529050603c831115610bd2578060c001516001600160a01b03166108fc82602001519081150290604051600060405180830381858888f19350505050158015610bd0573d6000803e3d6000fd5b505b505050565b6006805460408051602060026001851615610100026000190190941693909304601f810184900484028201840190925281815292918301828280156107775780601f1061074c57610100808354040283529160200191610777565b6001546001600160a01b031681565b60008181548110610c4e57fe5b60009182526020918290206007919091020180546040805160026001841615610100026000190190931692909204601f810185900485028301850190915280825291935091839190830182828015610ce75780601f10610cbc57610100808354040283529160200191610ce7565b820191906000526020600020905b815481529060010190602001808311610cca57829003601f168201915b505050505090806001015490806002018054600181600116156101000203166002900480601f016020809104026020016040519081016040528092919081815260200182805460018160011615610100020316600290048015610d8b5780601f10610d6057610100808354040283529160200191610d8b565b820191906000526020600020905b815481529060010190602001808311610d6e57829003601f168201915b5050505060038301805460408051602060026001851615610100026000190190941693909304601f8101849004840282018401909252818152949594935090830182828015610e1b5780601f10610df057610100808354040283529160200191610e1b565b820191906000526020600020905b815481529060010190602001808311610dfe57829003601f168201915b5050505060048301805460408051602060026001851615610100026000190190941693909304601f8101849004840282018401909252818152949594935090830182828015610eab5780601f10610e8057610100808354040283529160200191610eab565b820191906000526020600020905b815481529060010190602001808311610e8e57829003601f168201915b5050505060058301805460408051602060026001851615610100026000190190941693909304601f8101849004840282018401909252818152949594935090830182828015610f3b5780601f10610f1057610100808354040283529160200191610f3b565b820191906000526020600020905b815481529060010190602001808311610f1e57829003601f168201915b505050600690930154919250506001600160a01b031687565b6003805460408051602060026001851615610100026000190190941693909304601f810184900484028201840190925281815292918301828280156107775780601f1061074c57610100808354040283529160200191610777565b6002805460408051602060018416156101000260001901909316849004601f810184900484028201840190925281815292918301828280156107775780601f1061074c57610100808354040283529160200191610777565b6001546001600160a01b0316331461101e57600080fd5b611026611160565b506040805160e0810182528881526020808201899052918101879052606081018690526080810185905260a081018490526001600160a01b03831660c082015260008054600181018083559180528251805193949293859360079093027f290decd9548b62a8d60345a988386fc84ba6bc95484008f6362f93160ef3e56301926110b49284929101906111a6565b506020828101516001830155604083015180516110d792600285019201906111a6565b50606082015180516110f39160038401916020909101906111a6565b506080820151805161110f9160048401916020909101906111a6565b5060a0820151805161112b9160058401916020909101906111a6565b5060c09190910151600690910180546001600160a01b0319166001600160a01b03909216919091179055505050505050505050565b6040518060e0016040528060608152602001600081526020016060815260200160608152602001606081526020016060815260200160006001600160a01b031681525090565b828054600181600116156101000203166002900490600052602060002090601f016020900481019282601f106111e757805160ff1916838001178555611214565b82800160010185558215611214579182015b828111156112145782518255916020019190600101906111f9565b50611220929150611224565b5090565b61123e91905b80821115611220576000815560010161122a565b9056fea265627a7a72315820eb4580dd601f1571b1722dcbd617d74d480781510970d567fb1975eefc09ab4064736f6c63430005100032a265627a7a72315820b786b1d90af996f0426bd94995a2e2c989fde4b17be1bd17c2be85bf35a1e77d64736f6c63430005100032",
  "source": "// SPDX-License-Identifier: MIT\npragma solidity ^0.5.16;\n\nimport \"./FlightDelay.sol\";\n\ncontract InsuranceClients {\n\n    address[] public clients;\n\n    function createClient(string memory flightId) public {\n        address newClient = address (new FlightDelay(flightId, msg.sender));\n        clients.push(newClient);\n    }\n\n    function getDeployedClients() public view returns (address[] memory) {\n        return clients;\n    }\n\n}",
  "sourcePath": "/projects/BC-GROUP2/flightDelay/contracts/InsuranceClients.sol",
  "compiler": {
    "name": "solc",
    "version": "0.5.16+commit.9c3226ce.Emscripten.clang"
  },
  "schemaVersion": "3.4.0",
  "updatedAt": "2021-07-05T16:57:58.766Z",
  "devdoc": {
    "methods": {}
  },
  "userdoc": {
    "methods": {}
  }
}