{
  "contractName": "InsuranceClients",
  "abi": [
    {
      "constant": true,
      "inputs": [
        {
          "internalType": "uint256",
          "name": "",
          "type": "uint256"
        }
      ],
      "name": "clients",
      "outputs": [
        {
          "internalType": "address",
          "name": "",
          "type": "address"
        }
      ],
      "payable": false,
      "stateMutability": "view",
      "type": "function"
    },
    {
      "constant": false,
      "inputs": [
        {
          "internalType": "uint256",
          "name": "bookingId",
          "type": "uint256"
        },
        {
          "internalType": "uint256",
          "name": "flightId",
          "type": "uint256"
        }
      ],
      "name": "createClient",
      "outputs": [],
      "payable": false,
      "stateMutability": "nonpayable",
      "type": "function"
    },
    {
      "constant": true,
      "inputs": [],
      "name": "getDeployedClients",
      "outputs": [
        {
          "internalType": "address[]",
          "name": "",
          "type": "address[]"
        }
      ],
      "payable": false,
      "stateMutability": "view",
      "type": "function"
    }
  ],
  "bytecode": "0x608060405234801561001057600080fd5b5061095d806100206000396000f3fe608060405234801561001057600080fd5b50600436106100415760003560e01c80631173e82f14610046578063cf3078c61461007e578063f88af21d146100dd575b600080fd5b61007c6004803603604081101561005c57600080fd5b81019080803590602001909291908035906020019092919050505061014b565b005b61008661022a565b6040518080602001828103825283818151815260200191508051906020019060200280838360005b838110156100c95780820151818401526020810190506100ae565b505050509050019250505060405180910390f35b610109600480360360208110156100f357600080fd5b81019080803590602001909291905050506102b8565b604051808273ffffffffffffffffffffffffffffffffffffffff1673ffffffffffffffffffffffffffffffffffffffff16815260200191505060405180910390f35b600082823360405161015c906102f4565b808481526020018381526020018273ffffffffffffffffffffffffffffffffffffffff1673ffffffffffffffffffffffffffffffffffffffff1681526020019350505050604051809103906000f0801580156101bc573d6000803e3d6000fd5b50905060008190806001815401808255809150509060018203906000526020600020016000909192909190916101000a81548173ffffffffffffffffffffffffffffffffffffffff021916908373ffffffffffffffffffffffffffffffffffffffff16021790555050505050565b606060008054806020026020016040519081016040528092919081815260200182805480156102ae57602002820191906000526020600020905b8160009054906101000a900473ffffffffffffffffffffffffffffffffffffffff1673ffffffffffffffffffffffffffffffffffffffff1681526020019060010190808311610264575b5050505050905090565b600081815481106102c557fe5b906000526020600020016000915054906101000a900473ffffffffffffffffffffffffffffffffffffffff1681565b610627806103028339019056fe608060405234801561001057600080fd5b506040516106273803806106278339818101604052606081101561003357600080fd5b8101908080519060200190929190805190602001909291908051906020019092919050505080600160006101000a81548173ffffffffffffffffffffffffffffffffffffffff021916908373ffffffffffffffffffffffffffffffffffffffff160217905550826002819055508160038190555050505061056e806100b96000396000f3fe6080604052600436106100555760003560e01c80630a10df7c1461005a5780635aa6cf97146100855780635daf3c06146100bd57806376f993f7146100e8578063a888c2cd1461013f578063b8daac74146101cf575b600080fd5b34801561006657600080fd5b5061006f61023e565b6040518082815260200191505060405180910390f35b6100bb6004803603604081101561009b57600080fd5b810190808035906020019092919080359060200190929190505050610244565b005b3480156100c957600080fd5b506100d261033a565b6040518082815260200191505060405180910390f35b3480156100f457600080fd5b506100fd610340565b604051808273ffffffffffffffffffffffffffffffffffffffff1673ffffffffffffffffffffffffffffffffffffffff16815260200191505060405180910390f35b34801561014b57600080fd5b506101786004803603602081101561016257600080fd5b8101908080359060200190929190505050610366565b604051808581526020018481526020018381526020018273ffffffffffffffffffffffffffffffffffffffff1673ffffffffffffffffffffffffffffffffffffffff16815260200194505050505060405180910390f35b3480156101db57600080fd5b5061023c600480360360808110156101f257600080fd5b81019080803590602001909291908035906020019092919080359060200190929190803573ffffffffffffffffffffffffffffffffffffffff1690602001909291905050506103c3565b005b60025481565b600160009054906101000a900473ffffffffffffffffffffffffffffffffffffffff1673ffffffffffffffffffffffffffffffffffffffff163373ffffffffffffffffffffffffffffffffffffffff161461029e57600080fd5b60008082815481106102ac57fe5b90600052602060002090600402019050603c831115610335578060030160009054906101000a900473ffffffffffffffffffffffffffffffffffffffff1673ffffffffffffffffffffffffffffffffffffffff166108fc82600201549081150290604051600060405180830381858888f19350505050158015610333573d6000803e3d6000fd5b505b505050565b60035481565b600160009054906101000a900473ffffffffffffffffffffffffffffffffffffffff1681565b6000818154811061037357fe5b90600052602060002090600402016000915090508060000154908060010154908060020154908060030160009054906101000a900473ffffffffffffffffffffffffffffffffffffffff16905084565b600160009054906101000a900473ffffffffffffffffffffffffffffffffffffffff1673ffffffffffffffffffffffffffffffffffffffff163373ffffffffffffffffffffffffffffffffffffffff161461041d57600080fd5b6104256104fb565b60405180608001604052808681526020018581526020018481526020018373ffffffffffffffffffffffffffffffffffffffff1681525090506000819080600181540180825580915050906001820390600052602060002090600402016000909192909190915060008201518160000155602082015181600101556040820151816002015560608201518160030160006101000a81548173ffffffffffffffffffffffffffffffffffffffff021916908373ffffffffffffffffffffffffffffffffffffffff1602179055505050505050505050565b6040518060800160405280600081526020016000815260200160008152602001600073ffffffffffffffffffffffffffffffffffffffff168152509056fea265627a7a7231582012a422958e17cfdca90f0dd56385886522169f64cebf036d10e3fc54077b811c64736f6c63430005100032a265627a7a72315820b1247a239a0a92764d2fa18cdb0440581d8e3902a0eec2a16c2af1d087b4027e64736f6c63430005100032",
  "source": "// SPDX-License-Identifier: MIT\npragma solidity ^0.5.16;\n\nimport \"./FlightDelay.sol\";\n\ncontract InsuranceClients {\n\n    address[] public clients;\n\n    function createClient(uint bookingId, uint flightId) public {\n        address newClient = address (new FlightDelay(bookingId, flightId, msg.sender));\n        clients.push(newClient);\n    }\n\n    function getDeployedClients() public view returns (address[] memory) {\n        return clients;\n    }\n\n}",
  "sourcePath": "/projects/BC-GROUP2/flightDelay/contracts/InsuranceClients.sol",
  "compiler": {
    "name": "solc",
    "version": "0.5.16+commit.9c3226ce.Emscripten.clang"
  },
  "schemaVersion": "3.4.0",
  "updatedAt": "2021-07-02T07:56:12.392Z",
  "networkType": "ethereum",
  "devdoc": {
    "methods": {}
  },
  "userdoc": {
    "methods": {}
  }
}