{
  "contractName": "InsuranceClients",
  "abi": [
    {
      "constant": true,
      "inputs": [
        {
          "internalType": "uint256",
          "name": "",
          "type": "uint256"
        }
      ],
      "name": "clients",
      "outputs": [
        {
          "internalType": "address",
          "name": "",
          "type": "address"
        }
      ],
      "payable": false,
      "stateMutability": "view",
      "type": "function"
    },
    {
      "constant": false,
      "inputs": [
        {
          "internalType": "uint256",
          "name": "bookingId",
          "type": "uint256"
        },
        {
          "internalType": "uint256",
          "name": "flightId",
          "type": "uint256"
        }
      ],
      "name": "createClient",
      "outputs": [],
      "payable": false,
      "stateMutability": "nonpayable",
      "type": "function"
    },
    {
      "constant": true,
      "inputs": [],
      "name": "getDeployedClients",
      "outputs": [
        {
          "internalType": "address[]",
          "name": "",
          "type": "address[]"
        }
      ],
      "payable": false,
      "stateMutability": "view",
      "type": "function"
    }
  ],
  "bytecode": "0x608060405234801561001057600080fd5b506106b9806100206000396000f3fe608060405234801561001057600080fd5b50600436106100415760003560e01c80631173e82f14610046578063cf3078c61461006b578063f88af21d146100c3575b600080fd5b6100696004803603604081101561005c57600080fd5b50803590602001356100fc565b005b61007361019b565b60408051602080825283518183015283519192839290830191858101910280838360005b838110156100af578181015183820152602001610097565b505050509050019250505060405180910390f35b6100e0600480360360208110156100d957600080fd5b50356101fd565b604080516001600160a01b039092168252519081900360200190f35b600082823360405161010d90610224565b92835260208301919091526001600160a01b03166040808301919091525190819003606001906000f080158015610148573d6000803e3d6000fd5b50600080546001810182559080527f290decd9548b62a8d60345a988386fc84ba6bc95484008f6362f93160ef3e5630180546001600160a01b0319166001600160a01b0392909216919091179055505050565b606060008054806020026020016040519081016040528092919081815260200182805480156101f357602002820191906000526020600020905b81546001600160a01b031681526001909101906020018083116101d5575b5050505050905090565b6000818154811061020a57fe5b6000918252602090912001546001600160a01b0316905081565b610453806102328339019056fe608060405234801561001057600080fd5b506040516104533803806104538339818101604052606081101561003357600080fd5b5080516020820151604090920151600180546001600160a01b0319166001600160a01b039092169190911790556002556003556103de806100756000396000f3fe6080604052600436106100555760003560e01c80630a10df7c1461005a5780635aa6cf97146100815780635daf3c06146100a657806376f993f7146100bb578063a888c2cd146100ec578063b8daac7414610145575b600080fd5b34801561006657600080fd5b5061006f61018a565b60408051918252519081900360200190f35b6100a46004803603604081101561009757600080fd5b5080359060200135610190565b005b3480156100b257600080fd5b5061006f610215565b3480156100c757600080fd5b506100d061021b565b604080516001600160a01b039092168252519081900360200190f35b3480156100f857600080fd5b506101166004803603602081101561010f57600080fd5b503561022a565b604080519485526020850193909352838301919091526001600160a01b03166060830152519081900360800190f35b34801561015157600080fd5b506100a46004803603608081101561016857600080fd5b50803590602081013590604081013590606001356001600160a01b031661026a565b60025481565b6001546001600160a01b031633146101a757600080fd5b60008082815481106101b557fe5b90600052602060002090600402019050603c83111561021057600381015460028201546040516001600160a01b039092169181156108fc0291906000818181858888f1935050505015801561020e573d6000803e3d6000fd5b505b505050565b60035481565b6001546001600160a01b031681565b6000818154811061023757fe5b6000918252602090912060049091020180546001820154600283015460039093015491935091906001600160a01b031684565b6001546001600160a01b0316331461028157600080fd5b610289610378565b50604080516080810182529485526020850193845284019182526001600160a01b03908116606085019081526000805460018101825590805294517f290decd9548b62a8d60345a988386fc84ba6bc95484008f6362f93160ef3e56360049096029586015592517f290decd9548b62a8d60345a988386fc84ba6bc95484008f6362f93160ef3e56485015590517f290decd9548b62a8d60345a988386fc84ba6bc95484008f6362f93160ef3e56584015590517f290decd9548b62a8d60345a988386fc84ba6bc95484008f6362f93160ef3e56690920180546001600160a01b03191692909116919091179055565b604051806080016040528060008152602001600081526020016000815260200160006001600160a01b03168152509056fea265627a7a72315820cb8bb917372c82470e6390ee79a0e16890936cafa8989b2e62c304eef750c6bb64736f6c63430005100032a265627a7a723158209e87686c1e4960d27fc0aa368d76b3aef7a4237aa89b66a72d43e827deefe1eb64736f6c63430005100032",
  "source": "// SPDX-License-Identifier: MIT\npragma solidity ^0.5.16;\n\nimport \"./FlightDelay.sol\";\n\ncontract InsuranceClients {\n\n    address[] public clients;\n\n    function createClient(uint bookingId, uint flightId) public {\n        address newClient = address (new FlightDelay(bookingId, flightId, msg.sender));\n        clients.push(newClient);\n    }\n\n    function getDeployedClients() public view returns (address[] memory) {\n        return clients;\n    }\n\n}",
  "sourcePath": "/projects/BC-GROUP2/flightDelay/contracts/InsuranceClients.sol",
  "compiler": {
    "name": "solc",
    "version": "0.5.16+commit.9c3226ce.Emscripten.clang"
  },
  "schemaVersion": "3.4.0",
  "updatedAt": "2021-07-05T09:53:49.813Z",
  "networkType": "ethereum",
  "devdoc": {
    "methods": {}
  },
  "userdoc": {
    "methods": {}
  }
}